{
  "contractName": "Battleship",
  "abi": [
    {
      "inputs": [],
      "stateMutability": "nonpayable",
      "type": "constructor"
    },
    {
      "anonymous": false,
      "inputs": [
        {
          "indexed": false,
          "internalType": "uint256",
          "name": "gameId",
          "type": "uint256"
        },
        {
          "indexed": true,
          "internalType": "address",
          "name": "attacker",
          "type": "address"
        },
        {
          "indexed": true,
          "internalType": "address",
          "name": "defender",
          "type": "address"
        },
        {
          "indexed": false,
          "internalType": "uint256",
          "name": "index",
          "type": "uint256"
        }
      ],
      "name": "Attack",
      "type": "event"
    },
    {
      "anonymous": false,
      "inputs": [
        {
          "indexed": false,
          "internalType": "uint256",
          "name": "gameId",
          "type": "uint256"
        },
        {
          "indexed": true,
          "internalType": "address",
          "name": "attacker",
          "type": "address"
        },
        {
          "indexed": true,
          "internalType": "address",
          "name": "defender",
          "type": "address"
        },
        {
          "indexed": false,
          "internalType": "uint256",
          "name": "index",
          "type": "uint256"
        },
        {
          "indexed": false,
          "internalType": "bool",
          "name": "hit",
          "type": "bool"
        }
      ],
      "name": "AttackResult",
      "type": "event"
    },
    {
      "anonymous": false,
      "inputs": [
        {
          "indexed": false,
          "internalType": "uint256",
          "name": "gameId",
          "type": "uint256"
        },
        {
          "indexed": true,
          "internalType": "address",
          "name": "owner",
          "type": "address"
        },
        {
          "indexed": false,
          "internalType": "uint8",
          "name": "gridSize",
          "type": "uint8"
        },
        {
          "indexed": false,
          "internalType": "uint256",
          "name": "bet",
          "type": "uint256"
        }
      ],
      "name": "GameCreated",
      "type": "event"
    },
    {
      "anonymous": false,
      "inputs": [
        {
          "indexed": false,
          "internalType": "uint256",
          "name": "gameId",
          "type": "uint256"
        },
        {
          "indexed": true,
          "internalType": "address",
          "name": "winner",
          "type": "address"
        },
        {
          "indexed": true,
          "internalType": "address",
          "name": "opponent",
          "type": "address"
        },
        {
          "indexed": false,
          "internalType": "bool",
          "name": "void",
          "type": "bool"
        }
      ],
      "name": "GameFinished",
      "type": "event"
    },
    {
      "anonymous": false,
      "inputs": [
        {
          "indexed": false,
          "internalType": "uint256",
          "name": "gameId",
          "type": "uint256"
        },
        {
          "indexed": true,
          "internalType": "address",
          "name": "owner",
          "type": "address"
        },
        {
          "indexed": true,
          "internalType": "address",
          "name": "challenger",
          "type": "address"
        },
        {
          "indexed": false,
          "internalType": "uint256",
          "name": "bet",
          "type": "uint256"
        }
      ],
      "name": "GameJoined",
      "type": "event"
    },
    {
      "anonymous": false,
      "inputs": [
        {
          "indexed": false,
          "internalType": "uint256",
          "name": "gameId",
          "type": "uint256"
        },
        {
          "indexed": true,
          "internalType": "address",
          "name": "revealer",
          "type": "address"
        },
        {
          "indexed": true,
          "internalType": "address",
          "name": "opponent",
          "type": "address"
        },
        {
          "indexed": false,
          "internalType": "string",
          "name": "ships",
          "type": "string"
        },
        {
          "indexed": false,
          "internalType": "bool",
          "name": "void",
          "type": "bool"
        },
        {
          "indexed": false,
          "internalType": "bytes32",
          "name": "secret",
          "type": "bytes32"
        },
        {
          "indexed": false,
          "internalType": "bytes32",
          "name": "secre",
          "type": "bytes32"
        }
      ],
      "name": "GameRevealed",
      "type": "event"
    },
    {
      "inputs": [
        {
          "internalType": "uint256",
          "name": "",
          "type": "uint256"
        }
      ],
      "name": "games",
      "outputs": [
        {
          "internalType": "enum Battleship.GameStatus",
          "name": "status",
          "type": "uint8"
        },
        {
          "internalType": "uint8",
          "name": "gridSize",
          "type": "uint8"
        },
        {
          "internalType": "uint8",
          "name": "targetIndex",
          "type": "uint8"
        },
        {
          "internalType": "address",
          "name": "owner",
          "type": "address"
        },
        {
          "internalType": "address",
          "name": "challenger",
          "type": "address"
        },
        {
          "internalType": "address",
          "name": "turn",
          "type": "address"
        },
        {
          "internalType": "address",
          "name": "winner",
          "type": "address"
        },
        {
          "internalType": "uint256",
          "name": "funds",
          "type": "uint256"
        }
      ],
      "stateMutability": "view",
      "type": "function",
      "constant": true
    },
    {
      "inputs": [],
      "name": "owner",
      "outputs": [
        {
          "internalType": "address",
          "name": "",
          "type": "address"
        }
      ],
      "stateMutability": "view",
      "type": "function",
      "constant": true
    },
    {
      "inputs": [
        {
          "internalType": "address",
          "name": "player",
          "type": "address"
        }
      ],
      "name": "getPlayerGames",
      "outputs": [
        {
          "internalType": "uint256[]",
          "name": "",
          "type": "uint256[]"
        }
      ],
      "stateMutability": "view",
      "type": "function",
      "constant": true
    },
    {
      "inputs": [
        {
          "internalType": "uint256",
          "name": "gameId",
          "type": "uint256"
        },
        {
          "internalType": "address",
          "name": "player",
          "type": "address"
        }
      ],
      "name": "getGameTarget",
      "outputs": [
        {
          "internalType": "int8[]",
          "name": "",
          "type": "int8[]"
        }
      ],
      "stateMutability": "view",
      "type": "function",
      "constant": true
    },
    {
      "inputs": [
        {
          "internalType": "uint256",
          "name": "gameId",
          "type": "uint256"
        },
        {
          "internalType": "address",
          "name": "player",
          "type": "address"
        }
      ],
      "name": "getGameOcean",
      "outputs": [
        {
          "internalType": "int8[]",
          "name": "",
          "type": "int8[]"
        }
      ],
      "stateMutability": "view",
      "type": "function",
      "constant": true
    },
    {
      "inputs": [],
      "name": "toggleEmergency",
      "outputs": [],
      "stateMutability": "nonpayable",
      "type": "function"
    },
    {
      "inputs": [
        {
          "internalType": "uint8",
          "name": "gridSize",
          "type": "uint8"
        },
        {
          "internalType": "bytes32",
          "name": "secret",
          "type": "bytes32"
        }
      ],
      "name": "createGame",
      "outputs": [],
      "stateMutability": "payable",
      "type": "function",
      "payable": true
    },
    {
      "inputs": [
        {
          "internalType": "uint256",
          "name": "gameId",
          "type": "uint256"
        },
        {
          "internalType": "bytes32",
          "name": "secret",
          "type": "bytes32"
        }
      ],
      "name": "joinGame",
      "outputs": [],
      "stateMutability": "payable",
      "type": "function",
      "payable": true
    },
    {
      "inputs": [
        {
          "internalType": "uint256",
          "name": "gameId",
          "type": "uint256"
        },
        {
          "internalType": "uint8",
          "name": "index",
          "type": "uint8"
        }
      ],
      "name": "attack",
      "outputs": [],
      "stateMutability": "nonpayable",
      "type": "function"
    },
    {
      "inputs": [
        {
          "internalType": "uint256",
          "name": "gameId",
          "type": "uint256"
        },
        {
          "internalType": "uint8",
          "name": "index",
          "type": "uint8"
        },
        {
          "internalType": "bool",
          "name": "hit",
          "type": "bool"
        }
      ],
      "name": "counterAttack",
      "outputs": [],
      "stateMutability": "nonpayable",
      "type": "function"
    },
    {
      "inputs": [
        {
          "internalType": "uint256",
          "name": "gameId",
          "type": "uint256"
        }
      ],
      "name": "withdraw",
      "outputs": [],
      "stateMutability": "nonpayable",
      "type": "function"
    },
    {
      "inputs": [
        {
          "internalType": "uint256",
          "name": "gameId",
          "type": "uint256"
        },
        {
          "internalType": "string",
          "name": "ships",
          "type": "string"
        },
        {
          "internalType": "string",
          "name": "salt",
          "type": "string"
        }
      ],
      "name": "reveal",
      "outputs": [],
      "stateMutability": "nonpayable",
      "type": "function"
    }
  ],
  "bytecode": "0x608060405260008060146101000a81548160ff02191690831515021790555034801561002a57600080fd5b50336000806101000a81548173ffffffffffffffffffffffffffffffffffffffff021916908373ffffffffffffffffffffffffffffffffffffffff160217905550613be78061007a6000396000f3fe6080604052600436106100a75760003560e01c80639f3aa7f2116100645780639f3aa7f2146101b4578063a6b65e44146101dd578063aa5a2aba14610206578063ac95267114610243578063ca6ed7f01461025f578063dd224b9c1461029c576100a7565b8063117a5b90146100ac578063129daf84146100f05780632d1d27441461012d5780632e1a7d4d146101445780633efd14031461016d5780638da5cb5b14610189575b600080fd5b3480156100b857600080fd5b506100d360048036038101906100ce91906126b1565b6102c5565b6040516100e79897969594939291906127c1565b60405180910390f35b3480156100fc57600080fd5b506101176004803603810190610112919061286b565b6103c4565b6040516101249190612956565b60405180910390f35b34801561013957600080fd5b5061014261045b565b005b34801561015057600080fd5b5061016b600480360381019061016691906126b1565b610515565b005b610187600480360381019061018291906129da565b610702565b005b34801561019557600080fd5b5061019e610a29565b6040516101ab9190612a1a565b60405180910390f35b3480156101c057600080fd5b506101db60048036038101906101d69190612a35565b610a4d565b005b3480156101e957600080fd5b5061020460048036038101906101ff9190612aad565b610c0a565b005b34801561021257600080fd5b5061022d60048036038101906102289190612b00565b61119c565b60405161023a9190612c0b565b60405180910390f35b61025d60048036038101906102589190612c2d565b61127d565b005b34801561026b57600080fd5b5061028660048036038101906102819190612b00565b61172d565b6040516102939190612c0b565b60405180910390f35b3480156102a857600080fd5b506102c360048036038101906102be9190612db3565b61181d565b005b600181815481106102d557600080fd5b90600052602060002090600902016000915090508060000160009054906101000a900460ff16908060000160019054906101000a900460ff16908060000160029054906101000a900460ff16908060000160039054906101000a900473ffffffffffffffffffffffffffffffffffffffff16908060010160009054906101000a900473ffffffffffffffffffffffffffffffffffffffff16908060020160009054906101000a900473ffffffffffffffffffffffffffffffffffffffff16908060030160009054906101000a900473ffffffffffffffffffffffffffffffffffffffff16908060040154905088565b6060600260008373ffffffffffffffffffffffffffffffffffffffff1673ffffffffffffffffffffffffffffffffffffffff16815260200190815260200160002080548060200260200160405190810160405280929190818152602001828054801561044f57602002820191906000526020600020905b81548152602001906001019080831161043b575b50505050509050919050565b60008054906101000a900473ffffffffffffffffffffffffffffffffffffffff1673ffffffffffffffffffffffffffffffffffffffff163373ffffffffffffffffffffffffffffffffffffffff16146104e9576040517f08c379a00000000000000000000000000000000000000000000000000000000081526004016104e090612ec1565b60405180910390fd5b600060149054906101000a900460ff1615600060146101000a81548160ff021916908315150217905550565b80600480811115610529576105286126de565b5b6001828154811061053d5761053c612ee1565b5b906000526020600020906009020160000160009054906101000a900460ff16600481111561056e5761056d6126de565b5b146105ae576040517f08c379a00000000000000000000000000000000000000000000000000000000081526004016105a590612f5c565b60405180910390fd5b3373ffffffffffffffffffffffffffffffffffffffff16600182815481106105d9576105d8612ee1565b5b906000526020600020906009020160030160009054906101000a900473ffffffffffffffffffffffffffffffffffffffff1673ffffffffffffffffffffffffffffffffffffffff1614610661576040517f08c379a000000000000000000000000000000000000000000000000000000000815260040161065890612fee565b60405180910390fd5b60006001838154811061067757610676612ee1565b5b90600052602060002090600902016004015490506000600184815481106106a1576106a0612ee1565b5b9060005260206000209060090201600401819055503373ffffffffffffffffffffffffffffffffffffffff166108fc829081150290604051600060405180830381858888f193505050501580156106fc573d6000803e3d6000fd5b50505050565b600060149054906101000a900460ff1615610752576040517f08c379a00000000000000000000000000000000000000000000000000000000081526004016107499061305a565b60405180910390fd5b60006001805490509050600180816001815401808255809150500390600052602060002090505060006001828154811061078f5761078e612ee1565b5b9060005260206000209060090201905060008160000160006101000a81548160ff021916908360048111156107c7576107c66126de565b5b0217905550838160000160016101000a81548160ff021916908360ff160217905550338160000160036101000a81548173ffffffffffffffffffffffffffffffffffffffff021916908373ffffffffffffffffffffffffffffffffffffffff160217905550338160020160006101000a81548173ffffffffffffffffffffffffffffffffffffffff021916908373ffffffffffffffffffffffffffffffffffffffff160217905550828160050160003373ffffffffffffffffffffffffffffffffffffffff1673ffffffffffffffffffffffffffffffffffffffff168152602001908152602001600020819055506002846108c291906131dc565b60ff1667ffffffffffffffff8111156108de576108dd612c88565b5b60405190808252806020026020018201604052801561090c5781602001602082028036833780820191505090505b508160070160003373ffffffffffffffffffffffffffffffffffffffff1673ffffffffffffffffffffffffffffffffffffffff168152602001908152602001600020908051906020019061096192919061257e565b50348160040181905550600260003373ffffffffffffffffffffffffffffffffffffffff1673ffffffffffffffffffffffffffffffffffffffff1681526020019081526020016000208290806001815401808255809150506001900390600052602060002001600090919091909150553373ffffffffffffffffffffffffffffffffffffffff167fce7afad46ab3446a50492edf65c62119da1a4def9df32e797c96b27a9470f411838634604051610a1b93929190613208565b60405180910390a250505050565b60008054906101000a900473ffffffffffffffffffffffffffffffffffffffff1681565b8160016004811115610a6257610a616126de565b5b60018281548110610a7657610a75612ee1565b5b906000526020600020906009020160000160009054906101000a900460ff166004811115610aa757610aa66126de565b5b14610ae7576040517f08c379a0000000000000000000000000000000000000000000000000000000008152600401610ade9061328b565b60405180910390fd5b8260018181548110610afc57610afb612ee1565b5b906000526020600020906009020160020160009054906101000a900473ffffffffffffffffffffffffffffffffffffffff1673ffffffffffffffffffffffffffffffffffffffff163373ffffffffffffffffffffffffffffffffffffffff1614610b9b576040517f08c379a0000000000000000000000000000000000000000000000000000000008152600401610b92906132f7565b60405180910390fd5b6000610ba78533612189565b9050600260018681548110610bbf57610bbe612ee1565b5b906000526020600020906009020160000160006101000a81548160ff02191690836004811115610bf257610bf16126de565b5b0217905550610c038533838761229d565b5050505050565b8260026004811115610c1f57610c1e6126de565b5b60018281548110610c3357610c32612ee1565b5b906000526020600020906009020160000160009054906101000a900460ff166004811115610c6457610c636126de565b5b14610ca4576040517f08c379a0000000000000000000000000000000000000000000000000000000008152600401610c9b90613363565b60405180910390fd5b8360018181548110610cb957610cb8612ee1565b5b906000526020600020906009020160020160009054906101000a900473ffffffffffffffffffffffffffffffffffffffff1673ffffffffffffffffffffffffffffffffffffffff163373ffffffffffffffffffffffffffffffffffffffff1614610d58576040517f08c379a0000000000000000000000000000000000000000000000000000000008152600401610d4f906132f7565b60405180910390fd5b6000610d648633612189565b9050600060018781548110610d7c57610d7b612ee1565b5b906000526020600020906009020160000160029054906101000a900460ff16905084610dc8577fffffffffffffffffffffffffffffffffffffffffffffffffffffffffffffffff610dcb565b60015b60018881548110610ddf57610dde612ee1565b5b906000526020600020906009020160070160008473ffffffffffffffffffffffffffffffffffffffff1673ffffffffffffffffffffffffffffffffffffffff1681526020019081526020016000208260ff1681548110610e4257610e41612ee1565b5b90600052602060002090602091828204019190066101000a81548160ff021916908360000b60ff1602179055503373ffffffffffffffffffffffffffffffffffffffff168273ffffffffffffffffffffffffffffffffffffffff167fa2315efec4d5e20b003e5d4f3f3b4482c0ff24139c531e2295053e20611b44a0898489604051610ed0939291906133cd565b60405180910390a3610ee48733848961229d565b6000610fc560018981548110610efd57610efc612ee1565b5b906000526020600020906009020160070160008573ffffffffffffffffffffffffffffffffffffffff1673ffffffffffffffffffffffffffffffffffffffff168152602001908152602001600020805480602002602001604051908101604052809291908181526020018280548015610fbb57602002820191906000526020600020906000905b82829054906101000a900460000b60000b81526020019060010190602082600001049283019260010382029150808411610f845790505b50505050506123ac565b9050600061100460018a81548110610fe057610fdf612ee1565b5b906000526020600020906009020160000160019054906101000a900460ff166124c2565b90506000818360016003811061101d5761101c612ee1565b5b602002015114905060008360026003811061103b5761103a612ee1565b5b60200201518460016003811061105457611053612ee1565b5b6020020151846110649190613404565b11905081806110705750805b1561118f57600360018c8154811061108b5761108a612ee1565b5b906000526020600020906009020160000160006101000a81548160ff021916908360048111156110be576110bd6126de565b5b02179055508560018c815481106110d8576110d7612ee1565b5b906000526020600020906009020160030160006101000a81548173ffffffffffffffffffffffffffffffffffffffff021916908373ffffffffffffffffffffffffffffffffffffffff1602179055503373ffffffffffffffffffffffffffffffffffffffff168673ffffffffffffffffffffffffffffffffffffffff167f705a40d86da29e8665f1e99fbdfad678c2a87a93ac9bcd3d8b8a288c917b64b18d84604051611186929190613438565b60405180910390a35b5050505050505050505050565b6060600183815481106111b2576111b1612ee1565b5b906000526020600020906009020160070160008373ffffffffffffffffffffffffffffffffffffffff1673ffffffffffffffffffffffffffffffffffffffff16815260200190815260200160002080548060200260200160405190810160405280929190818152602001828054801561127057602002820191906000526020600020906000905b82829054906101000a900460000b60000b815260200190600101906020826000010492830192600103820291508084116112395790505b5050505050905092915050565b600060149054906101000a900460ff16156112cd576040517f08c379a00000000000000000000000000000000000000000000000000000000081526004016112c49061305a565b60405180910390fd5b81600060048111156112e2576112e16126de565b5b600182815481106112f6576112f5612ee1565b5b906000526020600020906009020160000160009054906101000a900460ff166004811115611327576113266126de565b5b14611367576040517f08c379a000000000000000000000000000000000000000000000000000000000815260040161135e906134ad565b60405180910390fd5b3373ffffffffffffffffffffffffffffffffffffffff166001848154811061139257611391612ee1565b5b906000526020600020906009020160000160039054906101000a900473ffffffffffffffffffffffffffffffffffffffff1673ffffffffffffffffffffffffffffffffffffffff160361141a576040517f08c379a000000000000000000000000000000000000000000000000000000000815260040161141190613519565b60405180910390fd5b346001848154811061142f5761142e612ee1565b5b90600052602060002090600902016004015414611481576040517f08c379a000000000000000000000000000000000000000000000000000000000815260040161147890613585565b60405180910390fd5b60006001848154811061149757611496612ee1565b5b9060005260206000209060090201905060018160000160006101000a81548160ff021916908360048111156114cf576114ce6126de565b5b0217905550338160010160006101000a81548173ffffffffffffffffffffffffffffffffffffffff021916908373ffffffffffffffffffffffffffffffffffffffff160217905550828160050160003373ffffffffffffffffffffffffffffffffffffffff1673ffffffffffffffffffffffffffffffffffffffff1681526020019081526020016000208190555060028160000160019054906101000a900460ff1661157b91906131dc565b60ff1667ffffffffffffffff81111561159757611596612c88565b5b6040519080825280602002602001820160405280156115c55781602001602082028036833780820191505090505b508160070160003373ffffffffffffffffffffffffffffffffffffffff1673ffffffffffffffffffffffffffffffffffffffff168152602001908152602001600020908051906020019061161a92919061257e565b503481600401600082825461162f91906135a5565b92505081905550600260003373ffffffffffffffffffffffffffffffffffffffff1673ffffffffffffffffffffffffffffffffffffffff1681526020019081526020016000208490806001815401808255809150506001900390600052602060002001600090919091909150553373ffffffffffffffffffffffffffffffffffffffff168160000160039054906101000a900473ffffffffffffffffffffffffffffffffffffffff1673ffffffffffffffffffffffffffffffffffffffff167fb1ac9c5d841dda39836a3b9dc15b1f0081b3dbbd0eeebca5667f8efe05af38da863460405161171f9291906135d9565b60405180910390a350505050565b6060600061173b8484612189565b90506001848154811061175157611750612ee1565b5b906000526020600020906009020160070160008273ffffffffffffffffffffffffffffffffffffffff1673ffffffffffffffffffffffffffffffffffffffff16815260200190815260200160002080548060200260200160405190810160405280929190818152602001828054801561180f57602002820191906000526020600020906000905b82829054906101000a900460000b60000b815260200190600101906020826000010492830192600103820291508084116117d85790505b505050505091505092915050565b8260036004811115611832576118316126de565b5b6001828154811061184657611845612ee1565b5b906000526020600020906009020160000160009054906101000a900460ff166004811115611877576118766126de565b5b146118b7576040517f08c379a00000000000000000000000000000000000000000000000000000000081526004016118ae90612f5c565b60405180910390fd5b83600181815481106118cc576118cb612ee1565b5b906000526020600020906009020160000160039054906101000a900473ffffffffffffffffffffffffffffffffffffffff1673ffffffffffffffffffffffffffffffffffffffff163373ffffffffffffffffffffffffffffffffffffffff1614806119a757506001818154811061194657611945612ee1565b5b906000526020600020906009020160010160009054906101000a900473ffffffffffffffffffffffffffffffffffffffff1673ffffffffffffffffffffffffffffffffffffffff163373ffffffffffffffffffffffffffffffffffffffff16145b6119e6576040517f08c379a00000000000000000000000000000000000000000000000000000000081526004016119dd90613674565b60405180910390fd5b846000600182815481106119fd576119fc612ee1565b5b906000526020600020906009020160060160003373ffffffffffffffffffffffffffffffffffffffff1673ffffffffffffffffffffffffffffffffffffffff1681526020019081526020016000208054611a56906136c3565b905014611a98576040517f08c379a0000000000000000000000000000000000000000000000000000000008152600401611a8f90613740565b60405180910390fd5b6000611aa4868661254b565b9050600060018881548110611abc57611abb612ee1565b5b906000526020600020906009020160050160003373ffffffffffffffffffffffffffffffffffffffff1673ffffffffffffffffffffffffffffffffffffffff16815260200190815260200160002054905060018881548110611b2157611b20612ee1565b5b906000526020600020906009020160050160003373ffffffffffffffffffffffffffffffffffffffff1673ffffffffffffffffffffffffffffffffffffffff168152602001908152602001600020548214611bb1576040517f08c379a0000000000000000000000000000000000000000000000000000000008152600401611ba890613519565b60405180910390fd5b6000879050600080611bc38b33612189565b905060005b8351811015611d90577f3000000000000000000000000000000000000000000000000000000000000000848281518110611c0557611c04612ee1565b5b602001015160f81c60f81b7effffffffffffffffffffffffffffffffffffffffffffffffffffffffffffff19160315611d7d57600060018d81548110611c4e57611c4d612ee1565b5b906000526020600020906009020160070160008473ffffffffffffffffffffffffffffffffffffffff1673ffffffffffffffffffffffffffffffffffffffff1681526020019081526020016000208281548110611cae57611cad612ee1565b5b90600052602060002090602091828204019190069054906101000a900460000b60000b0315611d7d57600160000b60018d81548110611cf057611cef612ee1565b5b906000526020600020906009020160070160008473ffffffffffffffffffffffffffffffffffffffff1673ffffffffffffffffffffffffffffffffffffffff1681526020019081526020016000208281548110611d5057611d4f612ee1565b5b90600052602060002090602091828204019190069054906101000a900460000b60000b1415925082611d90575b8080611d8890613760565b915050611bc8565b508960018c81548110611da657611da5612ee1565b5b906000526020600020906009020160060160003373ffffffffffffffffffffffffffffffffffffffff1673ffffffffffffffffffffffffffffffffffffffff1681526020019081526020016000209081611e009190613955565b508160018c81548110611e1657611e15612ee1565b5b906000526020600020906009020160080160003373ffffffffffffffffffffffffffffffffffffffff1673ffffffffffffffffffffffffffffffffffffffff16815260200190815260200160002060006101000a81548160ff02191690831515021790555060008060018d81548110611e9257611e91612ee1565b5b906000526020600020906009020160060160008473ffffffffffffffffffffffffffffffffffffffff1673ffffffffffffffffffffffffffffffffffffffff1681526020019081526020016000208054611eeb906136c3565b90501190508015611f4557600460018d81548110611f0c57611f0b612ee1565b5b906000526020600020906009020160000160006101000a81548160ff02191690836004811115611f3f57611f3e6126de565b5b02179055505b821561210e573373ffffffffffffffffffffffffffffffffffffffff1660018d81548110611f7657611f75612ee1565b5b906000526020600020906009020160030160009054906101000a900473ffffffffffffffffffffffffffffffffffffffff1673ffffffffffffffffffffffffffffffffffffffff160361202957600060018d81548110611fd957611fd8612ee1565b5b906000526020600020906009020160030160006101000a81548173ffffffffffffffffffffffffffffffffffffffff021916908373ffffffffffffffffffffffffffffffffffffffff1602179055505b8080156120a3575060018c8154811061204557612044612ee1565b5b906000526020600020906009020160080160008373ffffffffffffffffffffffffffffffffffffffff1673ffffffffffffffffffffffffffffffffffffffff16815260200190815260200160002060009054906101000a900460ff16155b1561210d578160018d815481106120bd576120bc612ee1565b5b906000526020600020906009020160030160006101000a81548173ffffffffffffffffffffffffffffffffffffffff021916908373ffffffffffffffffffffffffffffffffffffffff1602179055505b5b8173ffffffffffffffffffffffffffffffffffffffff163373ffffffffffffffffffffffffffffffffffffffff167f54a9949e98767eacb240c4481517815575ec487cdb9dac1216e5dbad2b2f8f4a8e8e878b8b604051612173959493929190613a99565b60405180910390a3505050505050505050505050565b60008173ffffffffffffffffffffffffffffffffffffffff16600184815481106121b6576121b5612ee1565b5b906000526020600020906009020160000160039054906101000a900473ffffffffffffffffffffffffffffffffffffffff1673ffffffffffffffffffffffffffffffffffffffff161461224e576001838154811061221757612216612ee1565b5b906000526020600020906009020160000160039054906101000a900473ffffffffffffffffffffffffffffffffffffffff16612295565b6001838154811061226257612261612ee1565b5b906000526020600020906009020160010160009054906101000a900473ffffffffffffffffffffffffffffffffffffffff165b905092915050565b80600185815481106122b2576122b1612ee1565b5b906000526020600020906009020160000160026101000a81548160ff021916908360ff16021790555081600185815481106122f0576122ef612ee1565b5b906000526020600020906009020160020160006101000a81548173ffffffffffffffffffffffffffffffffffffffff021916908373ffffffffffffffffffffffffffffffffffffffff1602179055508173ffffffffffffffffffffffffffffffffffffffff168373ffffffffffffffffffffffffffffffffffffffff167fc95238986bf335b5875cdc0a5b57b3c76a36f058a3e3cc60d1ba023b3ea175f7868460405161239e929190613af3565b60405180910390a350505050565b6123b4612628565b600080600080600090505b855181101561249c577fffffffffffffffffffffffffffffffffffffffffffffffffffffffffffffffff60000b8682815181106123ff576123fe612ee1565b5b602002602001015160000b0361241e57838061241a90613760565b9450505b600160000b86828151811061243657612435612ee1565b5b602002602001015160000b0361245557828061245190613760565b9350505b600086828151811061246a57612469612ee1565b5b602002602001015160000b0361248957818061248590613760565b9250505b808061249490613760565b9150506123bf565b506040518060600160405280848152602001838152602001828152509350505050919050565b6000600360ff168260ff16036124de57600260ff169050612546565b600560ff168260ff160361250f5760026003806124fb9190613b1c565b6125059190613b1c565b60ff169050612546565b6002600380600460056125229190613b1c565b61252c9190613b1c565b6125369190613b1c565b6125409190613b1c565b60ff1690505b919050565b60008282604051602001612560929190613b8d565b60405160208183030381529060405280519060200120905092915050565b82805482825590600052602060002090601f016020900481019282156126175791602002820160005b838211156125e857835183826101000a81548160ff021916908360000b60ff16021790555092602001926001016020816000010492830192600103026125a7565b80156126155782816101000a81549060ff02191690556001016020816000010492830192600103026125e8565b505b509050612624919061264a565b5090565b6040518060600160405280600390602082028036833780820191505090505090565b5b8082111561266357600081600090555060010161264b565b5090565b6000604051905090565b600080fd5b600080fd5b6000819050919050565b61268e8161267b565b811461269957600080fd5b50565b6000813590506126ab81612685565b92915050565b6000602082840312156126c7576126c6612671565b5b60006126d58482850161269c565b91505092915050565b7f4e487b7100000000000000000000000000000000000000000000000000000000600052602160045260246000fd5b6005811061271e5761271d6126de565b5b50565b600081905061272f8261270d565b919050565b600061273f82612721565b9050919050565b61274f81612734565b82525050565b600060ff82169050919050565b61276b81612755565b82525050565b600073ffffffffffffffffffffffffffffffffffffffff82169050919050565b600061279c82612771565b9050919050565b6127ac81612791565b82525050565b6127bb8161267b565b82525050565b6000610100820190506127d7600083018b612746565b6127e4602083018a612762565b6127f16040830189612762565b6127fe60608301886127a3565b61280b60808301876127a3565b61281860a08301866127a3565b61282560c08301856127a3565b61283260e08301846127b2565b9998505050505050505050565b61284881612791565b811461285357600080fd5b50565b6000813590506128658161283f565b92915050565b60006020828403121561288157612880612671565b5b600061288f84828501612856565b91505092915050565b600081519050919050565b600082825260208201905092915050565b6000819050602082019050919050565b6128cd8161267b565b82525050565b60006128df83836128c4565b60208301905092915050565b6000602082019050919050565b600061290382612898565b61290d81856128a3565b9350612918836128b4565b8060005b8381101561294957815161293088826128d3565b975061293b836128eb565b92505060018101905061291c565b5085935050505092915050565b6000602082019050818103600083015261297081846128f8565b905092915050565b61298181612755565b811461298c57600080fd5b50565b60008135905061299e81612978565b92915050565b6000819050919050565b6129b7816129a4565b81146129c257600080fd5b50565b6000813590506129d4816129ae565b92915050565b600080604083850312156129f1576129f0612671565b5b60006129ff8582860161298f565b9250506020612a10858286016129c5565b9150509250929050565b6000602082019050612a2f60008301846127a3565b92915050565b60008060408385031215612a4c57612a4b612671565b5b6000612a5a8582860161269c565b9250506020612a6b8582860161298f565b9150509250929050565b60008115159050919050565b612a8a81612a75565b8114612a9557600080fd5b50565b600081359050612aa781612a81565b92915050565b600080600060608486031215612ac657612ac5612671565b5b6000612ad48682870161269c565b9350506020612ae58682870161298f565b9250506040612af686828701612a98565b9150509250925092565b60008060408385031215612b1757612b16612671565b5b6000612b258582860161269c565b9250506020612b3685828601612856565b9150509250929050565b600081519050919050565b600082825260208201905092915050565b6000819050602082019050919050565b60008160000b9050919050565b612b8281612b6c565b82525050565b6000612b948383612b79565b60208301905092915050565b6000602082019050919050565b6000612bb882612b40565b612bc28185612b4b565b9350612bcd83612b5c565b8060005b83811015612bfe578151612be58882612b88565b9750612bf083612ba0565b925050600181019050612bd1565b5085935050505092915050565b60006020820190508181036000830152612c258184612bad565b905092915050565b60008060408385031215612c4457612c43612671565b5b6000612c528582860161269c565b9250506020612c63858286016129c5565b9150509250929050565b600080fd5b600080fd5b6000601f19601f8301169050919050565b7f4e487b7100000000000000000000000000000000000000000000000000000000600052604160045260246000fd5b612cc082612c77565b810181811067ffffffffffffffff82111715612cdf57612cde612c88565b5b80604052505050565b6000612cf2612667565b9050612cfe8282612cb7565b919050565b600067ffffffffffffffff821115612d1e57612d1d612c88565b5b612d2782612c77565b9050602081019050919050565b82818337600083830152505050565b6000612d56612d5184612d03565b612ce8565b905082815260208101848484011115612d7257612d71612c72565b5b612d7d848285612d34565b509392505050565b600082601f830112612d9a57612d99612c6d565b5b8135612daa848260208601612d43565b91505092915050565b600080600060608486031215612dcc57612dcb612671565b5b6000612dda8682870161269c565b935050602084013567ffffffffffffffff811115612dfb57612dfa612676565b5b612e0786828701612d85565b925050604084013567ffffffffffffffff811115612e2857612e27612676565b5b612e3486828701612d85565b9150509250925092565b600082825260208201905092915050565b7f4f6e6c7920636f6e7472616374206f776e65722063616e2063616c6c2074686960008201527f732066756e6374696f6e00000000000000000000000000000000000000000000602082015250565b6000612eab602a83612e3e565b9150612eb682612e4f565b604082019050919050565b60006020820190508181036000830152612eda81612e9e565b9050919050565b7f4e487b7100000000000000000000000000000000000000000000000000000000600052603260045260246000fd5b7f47616d65206d7573742062652066696e69736865640000000000000000000000600082015250565b6000612f46601583612e3e565b9150612f5182612f10565b602082019050919050565b60006020820190508181036000830152612f7581612f39565b9050919050565b7f4f6e6c79207468652077696e6e65722063616e2063616c6c207468697320667560008201527f6e6374696f6e0000000000000000000000000000000000000000000000000000602082015250565b6000612fd8602683612e3e565b9150612fe382612f7c565b604082019050919050565b6000602082019050818103600083015261300781612fcb565b9050919050565b7f456d657267656e6379206d6f6465206973206163746976650000000000000000600082015250565b6000613044601883612e3e565b915061304f8261300e565b602082019050919050565b6000602082019050818103600083015261307381613037565b9050919050565b7f4e487b7100000000000000000000000000000000000000000000000000000000600052601160045260246000fd5b60008160011c9050919050565b6000808291508390505b6001851115613100578086048111156130dc576130db61307a565b5b60018516156130eb5780820291505b80810290506130f9856130a9565b94506130c0565b94509492505050565b60008261311957600190506131d5565b8161312757600090506131d5565b816001811461313d576002811461314757613176565b60019150506131d5565b60ff8411156131595761315861307a565b5b8360020a9150848211156131705761316f61307a565b5b506131d5565b5060208310610133831016604e8410600b84101617156131ab5782820a9050838111156131a6576131a561307a565b5b6131d5565b6131b884848460016130b6565b925090508184048111156131cf576131ce61307a565b5b81810290505b9392505050565b60006131e782612755565b91506131f283612755565b925061320060ff8484613109565b905092915050565b600060608201905061321d60008301866127b2565b61322a6020830185612762565b61323760408301846127b2565b949350505050565b7f47616d65206d7573742062652072656164790000000000000000000000000000600082015250565b6000613275601283612e3e565b91506132808261323f565b602082019050919050565b600060208201905081810360008301526132a481613268565b9050919050565b7f49742773206e6f7420796f7572207475726e0000000000000000000000000000600082015250565b60006132e1601283612e3e565b91506132ec826132ab565b602082019050919050565b60006020820190508181036000830152613310816132d4565b9050919050565b7f47616d65206d7573742062652073746172746564000000000000000000000000600082015250565b600061334d601483612e3e565b915061335882613317565b602082019050919050565b6000602082019050818103600083015261337c81613340565b9050919050565b6000819050919050565b60006133a86133a361339e84612755565b613383565b61267b565b9050919050565b6133b88161338d565b82525050565b6133c781612a75565b82525050565b60006060820190506133e260008301866127b2565b6133ef60208301856133af565b6133fc60408301846133be565b949350505050565b600061340f8261267b565b915061341a8361267b565b92508282039050818111156134325761343161307a565b5b92915050565b600060408201905061344d60008301856127b2565b61345a60208301846133be565b9392505050565b7f47616d65206d757374206265206f70656e000000000000000000000000000000600082015250565b6000613497601183612e3e565b91506134a282613461565b602082019050919050565b600060208201905081810360008301526134c68161348a565b9050919050565b7f596f752063616e6e6f74206a6f696e20796f7572206f776e2067616d65000000600082015250565b6000613503601d83612e3e565b915061350e826134cd565b602082019050919050565b60006020820190508181036000830152613532816134f6565b9050919050565b7f496e636f72726563742062657420616d6f756e74000000000000000000000000600082015250565b600061356f601483612e3e565b915061357a82613539565b602082019050919050565b6000602082019050818103600083015261359e81613562565b9050919050565b60006135b08261267b565b91506135bb8361267b565b92508282019050808211156135d3576135d261307a565b5b92915050565b60006040820190506135ee60008301856127b2565b6135fb60208301846127b2565b9392505050565b7f4f6e6c7920706c617965727320696e207468652067616d652063616e2063616c60008201527f6c20746869732066756e6374696f6e0000000000000000000000000000000000602082015250565b600061365e602f83612e3e565b915061366982613602565b604082019050919050565b6000602082019050818103600083015261368d81613651565b9050919050565b7f4e487b7100000000000000000000000000000000000000000000000000000000600052602260045260246000fd5b600060028204905060018216806136db57607f821691505b6020821081036136ee576136ed613694565b5b50919050565b7f5368697073206861766520616c7265616479206265656e2072657665616c6564600082015250565b600061372a602083612e3e565b9150613735826136f4565b602082019050919050565b600060208201905081810360008301526137598161371d565b9050919050565b600061376b8261267b565b91507fffffffffffffffffffffffffffffffffffffffffffffffffffffffffffffffff820361379d5761379c61307a565b5b600182019050919050565b600081519050919050565b60008190508160005260206000209050919050565b60006020601f8301049050919050565b600082821b905092915050565b6000600883026138157fffffffffffffffffffffffffffffffffffffffffffffffffffffffffffffffff826137d8565b61381f86836137d8565b95508019841693508086168417925050509392505050565b600061385261384d6138488461267b565b613383565b61267b565b9050919050565b6000819050919050565b61386c83613837565b61388061387882613859565b8484546137e5565b825550505050565b600090565b613895613888565b6138a0818484613863565b505050565b5b818110156138c4576138b960008261388d565b6001810190506138a6565b5050565b601f821115613909576138da816137b3565b6138e3846137c8565b810160208510156138f2578190505b6139066138fe856137c8565b8301826138a5565b50505b505050565b600082821c905092915050565b600061392c6000198460080261390e565b1980831691505092915050565b6000613945838361391b565b9150826002028217905092915050565b61395e826137a8565b67ffffffffffffffff81111561397757613976612c88565b5b61398182546136c3565b61398c8282856138c8565b600060209050601f8311600181146139bf57600084156139ad578287015190505b6139b78582613939565b865550613a1f565b601f1984166139cd866137b3565b60005b828110156139f5578489015182556001820191506020850194506020810190506139d0565b86831015613a125784890151613a0e601f89168261391b565b8355505b6001600288020188555050505b505050505050565b60005b83811015613a45578082015181840152602081019050613a2a565b60008484015250505050565b6000613a5c826137a8565b613a668185612e3e565b9350613a76818560208601613a27565b613a7f81612c77565b840191505092915050565b613a93816129a4565b82525050565b600060a082019050613aae60008301886127b2565b8181036020830152613ac08187613a51565b9050613acf60408301866133be565b613adc6060830185613a8a565b613ae96080830184613a8a565b9695505050505050565b6000604082019050613b0860008301856127b2565b613b1560208301846133af565b9392505050565b6000613b2782612755565b9150613b3283612755565b9250828201905060ff811115613b4b57613b4a61307a565b5b92915050565b600081905092915050565b6000613b67826137a8565b613b718185613b51565b9350613b81818560208601613a27565b80840191505092915050565b6000613b998285613b5c565b9150613ba58284613b5c565b9150819050939250505056fea2646970667358221220b34bae2a790e83796ddcfebdecb78b3f78b5d7c677f8f12f679301c77544583d64736f6c63430008130033",
  "immutableReferences": {},
  "source": "// SPDX-License-Identifier: MIT\npragma solidity >=0.4.22 <0.9.0;\n\n/// @title Battleship game on ethereum (Consensys Academy Final Project)\n/// @author eightyfive\ncontract Battleship {\n    address public owner;\n\n    //\n    // Constants\n    //\n    uint8 constant GRID_LARGE = 10;\n    uint8 constant GRID_SMALL = 5;\n    uint8 constant GRID_XSMALL = 3;\n\n    uint8 constant SHIP_CARRIER = 5;\n    uint8 constant SHIP_BATTLESHIP = 4;\n    uint8 constant SHIP_CRUISER = 3;\n    uint8 constant SHIP_SUBMARINE = 3;\n    uint8 constant SHIP_DESTROYER = 2;\n\n    int8 constant HIT = 1;\n    int8 constant MISS = -1;\n\n    //\n    // State definition\n    //\n\n    bool private emergency = false;\n\n    enum GameStatus {\n        OPEN,\n        READY,\n        STARTED,\n        FINISHED,\n        DONE\n    }\n\n    /// @dev Note on \"ocean/target\" grids:\n    /// @dev \"Ocean\" is the lower grid on a normal battleship boardgame (where you place your ships)\n    /// @dev \"Target\" is the upper grid on a normal battleship boardgame (where you aim at your opponent)\n    /// @dev Implementation: \"Target\" of player A is \"Ocean\" of Player B\n    //\n    /// @dev Kept same types together (struct best practice)\n    /// @dev Tried to define types as precise as possible (best practice)\n    struct Game {\n        GameStatus status;\n        uint8 gridSize;\n        uint8 targetIndex;\n        address owner;\n        address challenger;\n        address turn;\n        address winner;\n        uint256 funds;\n        mapping(address => bytes32) secrets;\n        mapping(address => string) ships;\n        mapping(address => int8[]) targets;\n        mapping(address => bool) cheated;\n    }\n\n    /// @dev self-explanatory\n    Game[] public games;\n\n    /// @dev Maps address to array of game IDs\n    mapping(address => uint256[]) private playerGames;\n\n    //\n    // Modifiers\n    //\n    modifier onlyOwner() {\n        require(\n            msg.sender == owner,\n            \"Only contract owner can call this function\"\n        );\n        _;\n    }\n\n    /// @dev Makes sure player is part of the game\n    modifier onlyPlayer(uint256 gameId) {\n        require(\n            msg.sender == games[gameId].owner ||\n                msg.sender == games[gameId].challenger,\n            \"Only players in the game can call this function\"\n        );\n        _;\n    }\n\n    modifier onlyWinner(uint256 gameId) {\n        require(\n            games[gameId].status == GameStatus.DONE,\n            \"Game must be finished\"\n        );\n        require(\n            games[gameId].winner == msg.sender,\n            \"Only the winner can call this function\"\n        );\n        _;\n    }\n\n    /// @dev Makes sure it is `sender` turn\n    modifier myTurn(uint256 gameId) {\n        require(msg.sender == games[gameId].turn, \"It's not your turn\");\n        _;\n    }\n\n    /// @dev Makes sure game.status is OPEN\n    modifier gameOpen(uint256 gameId) {\n        require(games[gameId].status == GameStatus.OPEN, \"Game must be open\");\n        _;\n    }\n\n    /// @dev Makes sure game.status is READY\n    modifier gameReady(uint256 gameId) {\n        require(games[gameId].status == GameStatus.READY, \"Game must be ready\");\n        _;\n    }\n\n    /// @dev Makes sure game.status is STARTED\n    modifier gameStarted(uint256 gameId) {\n        require(\n            games[gameId].status == GameStatus.STARTED,\n            \"Game must be started\"\n        );\n        _;\n    }\n\n    /// @dev Makes sure game.status is FINISHED\n    modifier gameFinished(uint256 gameId) {\n        require(\n            games[gameId].status == GameStatus.FINISHED,\n            \"Game must be finished\"\n        );\n        _;\n    }\n\n    /// @dev Makes sure `sender` has not revealed yet\n    modifier notRevealed(uint256 gameId) {\n        require(\n            bytes(games[gameId].ships[msg.sender]).length == 0,\n            \"Ships have already been revealed\"\n        );\n        _;\n    }\n\n    modifier notEmergency() {\n        require(!emergency, \"Emergency mode is active\");\n        _;\n    }\n\n    //\n    // Events\n    //\n\n    /// @dev `gameId` Game ID\n    /// @dev `owner` Address who created the game\n    /// @dev `gridSize` The size of the target/ocean grid\n    /// @dev `bet` The amount of the bet\n    event GameCreated(\n        uint256 gameId,\n        address indexed owner,\n        uint8 gridSize,\n        uint256 bet\n    );\n\n    /// @dev `gameId` Game ID\n    /// @dev `owner` Address who created the game\n    /// @dev `challenger` Address who joined the open game\n    /// @dev `bet` The matching amount of the bet\n    event GameJoined(\n        uint256 gameId,\n        address indexed owner,\n        address indexed challenger,\n        uint256 bet\n    );\n\n    /// @dev `gameId` Game ID\n    /// @dev `attacker` Address who performed the attack\n    /// @dev `defender` Address who suffured the attack\n    /// @dev `index` Index of the attack\n    event Attack(\n        uint256 gameId,\n        address indexed attacker,\n        address indexed defender,\n        uint256 index\n    );\n\n    /// @dev `gameId` Game ID\n    /// @dev `attacker` Address who performed the attack\n    /// @dev `defender` Address who suffured the attack\n    /// @dev `index` Index of the attack\n    /// @dev `hit` Result of the attack\n    event AttackResult(\n        uint256 gameId,\n        address indexed attacker,\n        address indexed defender,\n        uint256 index,\n        bool hit\n    );\n\n    /// @dev `gameId` Game ID\n    /// @dev `winner` Address who won the game\n    /// @dev `opponent` Address of opponent player\n    /// @dev `void` If game is void (cheated)\n    event GameFinished(\n        uint256 gameId,\n        address indexed winner,\n        address indexed opponent,\n        bool void\n    );\n\n    /// @dev `gameId` Game ID\n    /// @dev `revealer` Address who revealed its ships positions\n    /// @dev `opponent` Address of opponent player\n    /// @dev `ships` Unobfuscated ships positions\n    /// @dev `void` If ships positions are void (cheated)\n    event GameRevealed(\n        uint256 gameId,\n        address indexed revealer,\n        address indexed opponent,\n        string ships,\n        bool void,\n        bytes32 secret,\n        bytes32 secre\n    );\n\n    //\n    // Functions\n    //\n\n    constructor() {\n        owner = msg.sender;\n    }\n\n    /// @param player Player address\n    /// @return List of game IDs\n    function getPlayerGames(\n        address player\n    ) external view returns (uint256[] memory) {\n        return playerGames[player];\n    }\n\n    /// @param gameId Game ID\n    /// @param player Player address\n    /// @return Current \"target\" grid of player\n    function getGameTarget(\n        uint256 gameId,\n        address player\n    ) external view returns (int8[] memory) {\n        return games[gameId].targets[player];\n    }\n\n    /// @param gameId Game ID\n    /// @param player Player address\n    /// @return Current \"ocean\" grid of player (--> \"target\" grid of opponent!)\n    function getGameOcean(\n        uint256 gameId,\n        address player\n    ) external view returns (int8[] memory) {\n        address opponent = getOpponent(gameId, player);\n        return games[gameId].targets[opponent];\n    }\n\n    //\n    // Public functions\n    //\n\n    function toggleEmergency() public onlyOwner {\n        emergency = !emergency;\n    }\n\n    /// @param gridSize Size of the grid(s). Ex: size = 3 --> 9 positions.\n    /// @param secret Obfuscated ships positions (revealed at the end of the game)\n    function createGame(\n        uint8 gridSize,\n        bytes32 secret\n    ) public payable notEmergency {\n        // Game ID is just the normal array index.\n        uint256 gameId = games.length;\n\n        // Creates new (empty) Game\n        games.push();\n\n        // Fill game\n        Game storage game = games[gameId];\n        game.status = GameStatus.OPEN;\n        game.gridSize = gridSize;\n        game.owner = msg.sender;\n        game.turn = msg.sender;\n        game.secrets[msg.sender] = secret;\n        game.targets[msg.sender] = new int8[](gridSize ** 2);\n        game.funds = msg.value;\n\n        // Link game to player\n        playerGames[msg.sender].push(gameId);\n\n        emit GameCreated(gameId, msg.sender, gridSize, msg.value);\n    }\n\n    /// @param gameId Game ID\n    /// @param secret Obfuscated ships positions\n    function joinGame(\n        uint256 gameId,\n        bytes32 secret\n    ) public payable notEmergency gameOpen(gameId) {\n        require(\n            games[gameId].owner != msg.sender,\n            \"You cannot join your own game\"\n        );\n        require(games[gameId].funds == msg.value, \"Incorrect bet amount\");\n\n        // Update game\n        Game storage game = games[gameId];\n        game.status = GameStatus.READY;\n        game.challenger = msg.sender;\n        game.secrets[msg.sender] = secret;\n        game.targets[msg.sender] = new int8[](game.gridSize ** 2);\n        game.funds += msg.value;\n\n        // Link game to player\n        playerGames[msg.sender].push(gameId);\n\n        emit GameJoined(gameId, game.owner, msg.sender, msg.value);\n    }\n\n    function attack(\n        uint gameId,\n        uint8 index\n    ) public gameReady(gameId) myTurn(gameId) {\n        address opponent = getOpponent(gameId, msg.sender);\n\n        games[gameId].status = GameStatus.STARTED;\n\n        _attack(gameId, msg.sender, opponent, index);\n    }\n\n    function counterAttack(\n        uint gameId,\n        uint8 index,\n        bool hit\n    ) public gameStarted(gameId) myTurn(gameId) {\n        address opponent = getOpponent(gameId, msg.sender);\n        uint8 targetIndex = games[gameId].targetIndex;\n\n        // 1- Opponent attack result\n        games[gameId].targets[opponent][targetIndex] = hit ? HIT : MISS;\n\n        emit AttackResult(gameId, opponent, msg.sender, targetIndex, hit);\n\n        // 2- Counter attack\n        _attack(gameId, msg.sender, opponent, index);\n\n        // 3- Opponent win ?\n        // state = [miss, hit, empty]\n        uint[3] memory state = getGridState(games[gameId].targets[opponent]);\n        uint fleet = getFleetSize(games[gameId].gridSize);\n\n        // hits == fleet size\n        bool isWon = state[1] == fleet;\n\n        // hits + misses = max\n        // bool isFull = (state[0] + state[1]) == games[gameId].gridSize ** 2;\n\n        // (fleet size - hits) > empty\n        bool isVoid = (fleet - state[1]) > state[2];\n\n        if (isWon || isVoid) {\n            games[gameId].status = GameStatus.FINISHED;\n            games[gameId].winner = opponent;\n\n            emit GameFinished(gameId, opponent, msg.sender, isVoid);\n        }\n    }\n\n    function getOpponent(\n        uint gameId,\n        address player\n    ) internal view returns (address) {\n        return\n            games[gameId].owner == player\n                ? games[gameId].challenger\n                : games[gameId].owner;\n    }\n\n    function _attack(\n        uint gameId,\n        address attacker,\n        address defender,\n        uint8 index\n    ) internal {\n        games[gameId].targetIndex = index;\n        games[gameId].turn = defender; // Toggle turn\n\n        emit Attack(gameId, attacker, defender, index);\n    }\n\n    function withdraw(uint gameId) public onlyWinner(gameId) {\n        uint256 amount = games[gameId].funds;\n\n        // Remember to zero the game funds before\n        // sending to prevent re-entrancy attacks\n        games[gameId].funds = 0;\n\n        payable(msg.sender).transfer(amount);\n    }\n\n    function reveal(\n        uint gameId,\n        string memory ships,\n        string memory salt\n    ) public gameFinished(gameId) onlyPlayer(gameId) notRevealed(gameId) {\n        bytes32 secret = getSecret(ships, salt);\n\n        // 1- Check integrity of ships\n        bytes32 secret1 = games[gameId].secrets[msg.sender];\n        require(\n            secret == games[gameId].secrets[msg.sender],\n            \"You cannot join your own game\"\n        );\n\n        // 2- Check if cheated (reported MISS when HIT)\n        bytes memory positions = bytes(ships);\n        bool cheated = false;\n\n        address opponent = getOpponent(gameId, msg.sender);\n\n        // Check if ships are all HITs\n        for (uint256 i = 0; i < positions.length; i++) {\n            // Position on ocean is empty (ignore)\n            if (positions[i] == \"0\") {\n                continue;\n            }\n\n            // Position on target is empty (ignore)\n            if (games[gameId].targets[opponent][i] == 0) {\n                continue;\n            }\n\n            // Position is a ship\n            // Check if HIT\n            cheated = games[gameId].targets[opponent][i] != HIT;\n\n            if (cheated) {\n                break;\n            }\n        }\n\n        // Finally update state\n        games[gameId].ships[msg.sender] = ships;\n        games[gameId].cheated[msg.sender] = cheated;\n\n        // If opponent has revealed as well\n        bool isDone = bytes(games[gameId].ships[opponent]).length > 0;\n\n        if (isDone) {\n            games[gameId].status = GameStatus.DONE;\n        }\n\n        if (cheated) {\n            // If was winner, remove\n            if (games[gameId].winner == msg.sender) {\n                games[gameId].winner = address(0);\n            }\n\n            // If opponent has not cheated, make him winner\n            if (isDone && !games[gameId].cheated[opponent]) {\n                games[gameId].winner = opponent;\n            }\n        }\n\n        emit GameRevealed(\n            gameId,\n            msg.sender,\n            opponent,\n            ships,\n            cheated,\n            secret,\n            secret1\n        );\n    }\n\n    function getSecret(\n        string memory ships,\n        string memory salt\n    ) internal pure returns (bytes32) {\n        return keccak256(abi.encodePacked(ships, salt));\n    }\n\n    function getGridState(\n        int8[] memory grid\n    ) internal pure returns (uint[3] memory) {\n        uint miss;\n        uint hit;\n        uint empty;\n\n        for (uint i = 0; i < grid.length; i++) {\n            if (grid[i] == MISS) {\n                miss++;\n            }\n\n            if (grid[i] == HIT) {\n                hit++;\n            }\n\n            if (grid[i] == 0) {\n                empty++;\n            }\n        }\n\n        return [miss, hit, empty];\n    }\n\n    /// @param gridSize Size of the grid\n    /// @return Total length of all ships given grid size\n    function getFleetSize(uint8 gridSize) internal pure returns (uint) {\n        if (gridSize == GRID_XSMALL) {\n            return SHIP_DESTROYER; // 2\n        }\n\n        if (gridSize == GRID_SMALL) {\n            return SHIP_CRUISER + SHIP_SUBMARINE + SHIP_DESTROYER; // 8\n        }\n\n        // GRID_LARGE\n        return\n            SHIP_CARRIER +\n            SHIP_BATTLESHIP +\n            SHIP_CRUISER +\n            SHIP_SUBMARINE +\n            SHIP_DESTROYER; // 17\n    }\n}\n",
  "sourcePath": "C:\\Users\\Hp\\Desktop\\desktop files\\projects\\blockchain\\tutorial\\games tutorial\\finalgame\\Battleship\\contracts\\Battleship.sol",
  "compiler": {
    "name": "solc",
    "version": "0.8.19+commit.7dd6d404.Emscripten.clang"
  },
  "schemaVersion": "3.4.13",
  "updatedAt": "2023-06-02T23:39:14.919Z",
  "networkType": "ethereum",
  "devdoc": {
    "author": "eightyfive",
    "events": {
      "Attack(uint256,address,address,uint256)": {
        "details": "`gameId` Game ID`attacker` Address who performed the attack`defender` Address who suffured the attack`index` Index of the attack"
      },
      "AttackResult(uint256,address,address,uint256,bool)": {
        "details": "`gameId` Game ID`attacker` Address who performed the attack`defender` Address who suffured the attack`index` Index of the attack`hit` Result of the attack"
      },
      "GameCreated(uint256,address,uint8,uint256)": {
        "details": "`gameId` Game ID`owner` Address who created the game`gridSize` The size of the target/ocean grid`bet` The amount of the bet"
      },
      "GameFinished(uint256,address,address,bool)": {
        "details": "`gameId` Game ID`winner` Address who won the game`opponent` Address of opponent player`void` If game is void (cheated)"
      },
      "GameJoined(uint256,address,address,uint256)": {
        "details": "`gameId` Game ID`owner` Address who created the game`challenger` Address who joined the open game`bet` The matching amount of the bet"
      },
      "GameRevealed(uint256,address,address,string,bool,bytes32,bytes32)": {
        "details": "`gameId` Game ID`revealer` Address who revealed its ships positions`opponent` Address of opponent player`ships` Unobfuscated ships positions`void` If ships positions are void (cheated)"
      }
    },
    "kind": "dev",
    "methods": {
      "createGame(uint8,bytes32)": {
        "params": {
          "gridSize": "Size of the grid(s). Ex: size = 3 --> 9 positions.",
          "secret": "Obfuscated ships positions (revealed at the end of the game)"
        }
      },
      "getGameOcean(uint256,address)": {
        "params": {
          "gameId": "Game ID",
          "player": "Player address"
        },
        "returns": {
          "_0": "Current \"ocean\" grid of player (--> \"target\" grid of opponent!)"
        }
      },
      "getGameTarget(uint256,address)": {
        "params": {
          "gameId": "Game ID",
          "player": "Player address"
        },
        "returns": {
          "_0": "Current \"target\" grid of player"
        }
      },
      "getPlayerGames(address)": {
        "params": {
          "player": "Player address"
        },
        "returns": {
          "_0": "List of game IDs"
        }
      },
      "joinGame(uint256,bytes32)": {
        "params": {
          "gameId": "Game ID",
          "secret": "Obfuscated ships positions"
        }
      }
    },
    "stateVariables": {
      "games": {
        "details": "self-explanatory"
      },
      "playerGames": {
        "details": "Maps address to array of game IDs"
      }
    },
    "title": "Battleship game on ethereum (Consensys Academy Final Project)",
    "version": 1
  },
  "userdoc": {
    "kind": "user",
    "methods": {},
    "version": 1
  }
}